:020000040800F2
:1000000000200020AD030008F1030008F103000800
:10001000F1030008F1030008F103000800000000EC
:10002000000000000000000000000000F1030008D4
:10003000F103000800000000F1030008F1030008CC
:10004000F1030008F1030008F1030008F1030008C0
:10005000F1030008F1030008F1030008F1030008B0
:10006000F1030008F1030008F1030008F1030008A0
:10007000F1030008F1030008F1030008F103000890
:10008000F1030008F1030008F1030008000000007C
:10009000000000000000000000000000F103000864
:1000A000F1030008F1030008F1030008F103000860
:1000B000F1030008F1030008F1030008F103000850
:1000C000F10300080000000000000000F103000838
:1000D000F1030008F1030008F1030008F103000830
:1000E000F1030008F1030008F1030008000000001C
:1000F0000000000000000000000000000000000000
:1001000000000000000000000000000000000000EF
:100110000000000000000000F1030008F1030008E7
:1001200000000000000000000000000000000000CF
:1001300000000000000000000000000000000000BF
:1001400000000000000000000000000000000000AF
:10015000000000000000000000000000000000009F
:10016000000000000000000000000000000000008F
:10017000000000000000000000000000000000007F
:10018000000000000000000000000000000000006F
:10019000000000000000000000000000000000005F
:1001A000000000000000000000000000000000004F
:1001B000000000000000000000000000000000003F
:1001C0000000000000000000000000005FF808F1DF
:1001D00080B400AF174A174B1B6843F0010313604C
:1001E0001449144B5A68144B13404B60114A114B7D
:1001F0001B6823F0847323F4803313600D4A0D4B86
:100200001B6823F4802313600A4A0A4B5B6823F4BB
:10021000FE035360074B4FF41F029A60054B002208
:10022000DA62064B4FF000629A6000BFBD4680BCA8
:10023000704700BF001002400000FFF800ED00E032
:1002400080B485B000AF0023FB600023BB600023B7
:100250007B6000233B602A4B5B6803F00C03FB6070
:10026000FB68042B07D0082B09D0002B2FD1254B7E
:10027000254A1A602FE0234B234A1A602BE0204BBB
:100280005B6803F47013BB601D4B5B6803F4803341
:100290007B60BB689B0C0233BB607B68002B06D184
:1002A000BB681A4A02FB03F3164A136013E0144BAF
:1002B000DB6A03F00F0301333B60134A3B68B2FB78
:1002C000F3F3BA6802FB03F30E4A136003E00D4B2D
:1002D0000D4A1A6000BF0A4B5B681B0903F00F034D
:1002E0000B4AD35CFB60074B1A68FB6822FA03F3E6
:1002F000044A136000BF1437BD4680BC704700BF7E
:10030000001002400000002000127A0000093D00A9
:10031000F403000880B400AF0A4A0A4B9B6943F01B
:1003200010039361084A084B5B6823F0CC035360C9
:10033000054A054B5B6843F03303536000BFBD467D
:1003400080BC7047001002400010014080B500AF33
:10035000FFF7E0FF084A084BDB6843F40053D36023
:1003600000F00CF8044A044BDB6823F40053D3601C
:1003700000F004F8EEE700BF0010014080B483B045
:1003800000AF00237B6000237B6003E000BF7B683D
:1003900001337B607B68044A9342F7DD00BF0C3772
:1003A000BD4680BC704700BF7F969800002103E0E7
:1003B0000A4B5B584350043109480A4B42189A4291
:1003C000F6D3094A02E0002342F8043B074B9A4265
:1003D000F9D3FFF7FDFEFFF7B9FF70470C040008E3
:1003E0000000002004000020040000200400002081
:0403F000FEE7000024
:1003F40000000000000000000102030406070809D1
:080404000000000001020304E6
:04040C000024F400D4
:04000005080003AD3F
:00000001FF
