:020000040800F2
:1000000000200020BD0200080103000801030008D1
:1000100001030008010300080103000800000000BC
:1000200000000000000000000000000001030008C4
:10003000010300080000000001030008010300089C
:100040000103000801030008010300080103000880
:100050000103000801030008010300080103000870
:100060000103000801030008010300080103000860
:100070000103000801030008010300080103000850
:10008000010300080103000801030008000000004C
:100090000000000000000000000000000103000854
:1000A0000103000801030008010300080103000820
:1000B0000103000801030008010300080103000810
:1000C0000103000800000000000000000103000818
:1000D00001030008010300080103000801030008F0
:1000E00001030008010300080103000800000000EC
:1000F0000000000000000000000000000000000000
:1001000000000000000000000000000000000000EF
:1001100000000000000000000103000801030008C7
:1001200000000000000000000000000000000000CF
:1001300000000000000000000000000000000000BF
:1001400000000000000000000000000000000000AF
:10015000000000000000000000000000000000009F
:10016000000000000000000000000000000000008F
:10017000000000000000000000000000000000007F
:10018000000000000000000000000000000000006F
:10019000000000000000000000000000000000005F
:1001A000000000000000000000000000000000004F
:1001B000000000000000000000000000000000003F
:1001C0000000000000000000000000005FF808F1DF
:1001D000104B1A6842F001021A6059680E4A0A4030
:1001E0005A601A6822F0847222F480321A601A6807
:1001F00022F480221A605A6822F4FE025A604FF4F8
:100200001F029A600022DA624FF00062034B9A608C
:10021000704700BF001002400000FFF800ED00E052
:10022000134A10B55368134903F00C03042B01D093
:10023000082B0AD0104B0B605368104AC3F303130A
:10024000D25C0B68D3400B6010BD53685068C3F399
:100250008343C00341BFD06A074C00F00F00013058
:100260004CBFB4FBF0F0064802334343E3E700BF62
:10027000001002400000002000127A002C03000849
:1002800000093D00074A936943F010039361064B50
:100290005A6822F0CC025A605A6842F033025A601F
:1002A000704700BF0010024000100140024B00BF29
:1002B000013BFCD1704700BF80969800002103E00D
:1002C0000A4B5B584350043109480A4B42189A4282
:1002D000F6D3094A02E0002342F8043B074B9A4256
:1002E000F9D3FFF775FF00F00DF8704744030008DD
:1002F0000000002004000020040000200400002072
:10030000FEE7000008B5FFF7BDFF074AD36843F4D6
:100310000053D360FFF7CAFFD36823F40053D360C0
:0C032000FFF7C4FFF2E700BF001001402F
:10032C000000000000000000010203040607080999
:08033C000000000001020304AF
:040344000024F4009D
:04000005080002BD30
:00000001FF
